:04000000803114280F
:100008007E1480314E01161E0A280B2812280C1E59
:100018000E280F2812288731FF2780317E1009000B
:100028008031162820308400013085001530873152
:10003800F9278031A03084000130850050308731A5
:10004800F92780317E1040018631822E4101C1019D
:10005800400168084101C700400167084101C60026
:10006800400166084101C500400165084101C4001E
:1000780047084001B800410146084001B700410166
:1000880045084001B600410144084001B500003070
:10009800BC000030BB000030BA000030B900963117
:1000A8008A268031031859285A2871284101C1012C
:1000B800C10A4708F3004608F2004508F100440861
:1000C800F00092319922803173084101C70072080B
:1000D800C6007108C5007008C4004101C201C3010F
:1000E800420129084101B200420128084101B1003A
:1000F800410803198028812891284108031D852873
:1001080086288B282B30A6000030A7008F282D309A
:10011800A6000030A7002608C1004708F3004608DB
:10012800F2004508F1004408F00096310B268031B2
:1001380070037104031DA128A228D5284101410894
:100148000319A728A828B42841084301A000FF30B4
:100158004101B107FF30B23D0130C2000030C30099
:100168006430F0009830F1004208A03E93315423E7
:100178008031FD304101B107FF30B23D40016408D4
:10018800A7006308A600A030A8004101320840017A
:10019800AA00410131084001A9009331F7238031B9
:1001A800812E41014708F3004608F2004508F10096
:1001B8004408F00096310B26803170087104031D45
:1001C800E628E7280329410141080319EC28ED280E
:1001D800F92841084301A000FF304101B107FF3071
:1001E800B23D0130C2000030C3006830F0009830E2
:1001F800F1004208A03E933154238031BD283F309E
:100208004101CB008030CA000030C9000030C8006E
:10021800AF01B0014708F3004608F2004508F100B5
:100228004408F0000030F7000030F6000030F50018
:100238000030F400943190248031031824292529B2
:10024800762A332941013608CB003508CA0034081C
:10025800C9003308C8000130AF070030B03D413055
:100268004001A3002030A2000030A1000030A0000F
:1002780041014B084001A70041014A084001A6007E
:10028800410149084001A500410148084001A40076
:100298008D31C5258031400123084101B600400158
:1002A80022084101B500400121084101B400400184
:1002B80020084101B300330844024001EA0041012B
:1002C8003408453B4001EB0041013508463B4001FD
:1002D800EC0041013608473B4001ED006D08F30092
:1002E8006C08F2006B08F1006A08F0009331B22341
:1002F8008031F31B8D297308031D8E297208031D95
:100308008E297108031D8E2902307002031C8D2965
:100318008E292629410136084001B80041013508D7
:100328004001B700410134084001B60041013308DB
:100338004001B500410147084001BC0041014608A1
:100348004001BB00410145084001BA004101440891
:100358004001B90096318A268031031CB429B52999
:1003680026294101480844024001EA0041014908A0
:10037800453B4001EB0041014A08463B4001EC0087
:1003880041014B08473B4001ED006D08F3006C0844
:10039800F2006B08F1006A08F0009331B223803153
:1003A800F31BE5297308031DE4297208031DE429DA
:1003B8007108031DE429023070020318E429E529B5
:1003C8004F2A41014B08C7004A08C6004908C50022
:1003D8004808C400762A41304001B8002030B700F0
:1003E8000030B6000030B50041014B084001BC00A8
:1003F80041014A084001BB00410149084001BA00D7
:10040800410148084001B9008A310F22803140017A
:1004180038084101CB00400137084101CA004001BA
:1004280036084101C900400135084101C800FF30C4
:10043800AF07FF30B03D480844024001EA004101DF
:100448004908453B4001EB0041014A08463B400151
:10045800EC0041014B08473B4001ED006D08F300FB
:100468006C08F2006B08F1006A08F0009331B223BF
:100478008031F31B4E2A7308031D4D2A7208031D91
:100488004D2A7108031D4D2A0230700203184D2AA7
:100498004E2A4F2AE529410147084001B800410189
:1004A80046084001B700410145084001B600410136
:1004B80044084001B50041014B084001BC0041011E
:1004C8004A084001BB00410149084001BA00410106
:1004D80048084001B90096318A268031031C752AE4
:1004E800762AEF29400169084101A9002908AA00D4
:1004F8004201AB1B802A812A892A2B084101A300CB
:1005080042012A084101A2008E2A06304101A200B8
:100518000030A3002308AE002208AD000130AD076B
:100528000030AE3D66302A06031D9B2A9C2AB42A59
:10053800B01F9F2AA02AAA2A3F30CB008030CA00C9
:100548000030C9000030C800AF01B001673029068B
:100558000319AF2AB02AB42A2F08AD073008AE3DD8
:10056800B701B8014708BC004608BB004508BA00F7
:100578004408B9004B08B6004A08B5004908B40059
:100588004808B300942B41014B084001B8004101D1
:100598004A084001B700410149084001B60041013D
:1005A80048084001B50041013C084001BC00410138
:1005B8003B084001BB0041013A084001BA00410133
:1005C80039084001B9008A310F22803140013808CA
:1005D800D2003708D1003608D0003508CF0097314F
:1005E80015278031400152084101C00040015108DF
:1005F8004101BF00400150084101BE0040014F08C1
:100608004101BD004008F3003F08F2003E08F10038
:100618003D08F00095319B25803171084101AC00FF
:100628007008AB004B084001A70041014A0840018F
:10063800A600410149084001A500410148084001C0
:10064800A400410140084001A30041013F084001C6
:10065800A20041013E084001A10041013D084001BE
:10066800A0008D31C525803140012308B80022083B
:10067800B7002108B6002008B50041013C08400138
:10068800BC0041013B084001BB0041013A08400160
:10069800BA00410139084001B900933192238031F1
:1006A800400138084101BC00400137084101BB0046
:1006B800400136084101BA00400135084101B9003E
:1006C80041304001B8002030B7000030B60000309B
:1006D800B50041014B084001BC0041014A084001F6
:1006E800BB00410149084001BA00410148084001E6
:1006F800B9008A310F228031400138084101CB000E
:10070800400137084101CA00400136084101C900CB
:10071800400135084101C8000130B7070030B83D35
:100728003808803A4001EA0041012E08803A400129
:100738006A02031DA22B41012D083702031CA52BB9
:10074800A62BC72A40304001A300A030A2000030E9
:10075800A1000030A00041014B084001A700410161
:100768004A084001A600410149084001A50041018D
:1007780048084001A4008D31C52580314001230877
:100788004101C000400122084101BF004001210889
:100798004101BE00400120084101BD003C08400164
:1007A800B80041013B084001B70041013A08400147
:1007B800B600410139084001B50041014008400137
:1007C800BC0041013F084001BB0041013E08400117
:1007D800BA0041013D084001B90096318A268031AE
:1007E8000318F72BF82B022C00304101C000003011
:1007F800BF000030BE000030BD00272C41013C087E
:10080800F3003B08F2003A08F1003908F00040080C
:10081800F7003F08F6003E08F5003D08F400943163
:1008280090248031031C192C1A2C272C41012B18D9
:100838001E2C1F2C272C0030C0000030BF000030B9
:10084800BE000030BD0041014008F3003F08F2003F
:100858003E08F1003D08F0004708F7004608F6009A
:100868004508F5004408F4008B31B923803173083A
:100878004101BC007208BB007108BA007008B900D9
:100888003C084001B80041013B084001B700410164
:100898003A084001B600410139084001B50041302D
:1008A800A3002030A2000030A1000030A0004101C8
:1008B80036084001A700410135084001A600410162
:1008C80034084001A500410133084001A4008D31DE
:1008D800C525803140012308BC002208BB0021083F
:1008E800BA002008B90096318A268031031C7D2C75
:1008F8007E2CB92C01304101AF070030B03D4130AA
:100908004001A3002030A2000030A1000030A00068
:10091800410136084001A700410135084001A60001
:10092800410134084001A500410133084001A400F9
:100938008D31C5258031400123084101B6004001B1
:1009480022084101B500400121084101B4004001DD
:1009580020084101B30066302A06031DB42CB52CCB
:10096800B92C0130AD070030AE3D41013608CB004F
:100978003508CA003408C9003308C8003008A10087
:100988002F08A000A801A401A501B701B801012EF4
:1009980041014B084001B80041014A084001B70035
:1009A800410149084001B600410148084001B5002D
:1009B80041013C084001BC0041013B084001BB002B
:1009C80041013A084001BA00410139084001B90023
:1009D8008A310F22803140013808D2003708D1000F
:1009E8003608D0003508CF009731152780314001EF
:1009F80052084101C000400151084101BF004001B7
:100A080050084101BE0040014F084101BD004008A7
:100A1800F3003F08F2003E08F1003D08F000953170
:100A28009B2580317108803A4001EA0080306A02D3
:100A3800031D202D0A3070020318232D242D362D76
:100A480041014008F3003F08F2003E08F1003D086C
:100A5800F00095319B25803171084101AC00700888
:100A6800AB003B2D09304101AB000030AC00280839
:100A7800031D3F2D402D692DA11F432D442D692DA8
:100A88004208A03E8600013087002E3081000130E8
:100A9800C2070030C33DFF30B107FF30B23DA801A7
:100AA800A80A692D4208A03E860001308700303030
:100AB80081000130C2070030C33DFF30B107FF306D
:100AC800B23DFF30A407FF30A53D24082504031DCF
:100AD8006E2D6F2D562D4208A03E860001308700EE
:100AE8002B08303E81000130C2070030C33DFF3083
:100AF800B107FF30B23D4B084001A70041014A0849
:100B08004001A600410149084001A50041014808EB
:100B18004001A400410140084001A30041013F08F1
:100B28004001A20041013E084001A10041013D08E9
:100B38004001A0008D31C525803140012308B8004F
:100B48002208B7002108B6002008B50041013C087A
:100B58004001BC0041013B084001BB0041013A088B
:100B68004001BA00410139084001B900933192238C
:100B78008031400138084101BC004001370841017B
:100B8800BB00400136084101BA0040013508410167
:100B9800B90041304001B8002030B7000030B6003D
:100BA8000030B50041014B084001BC0041014A0832
:100BB8004001BB00410149084001BA004101480811
:100BC8004001B9008A310F228031400138084101C3
:100BD800CB00400137084101CA00400136084101F5
:100BE800C900400135084101C800FF30A007FF30A7
:100BF800A13D0130B7070030B83D3808803A4001C0
:100C0800EA0041012E08803A40016A02031D0F2EB6
:100C180041012D0837020318122E132E232E4101ED
:100C28004308803A4001EA0080306A02031D1F2E03
:100C38004B3041014202031C222E232ECC2C4F3074
:100C48004101B7000030B8003708A03E86000130E7
:100C580087008101A030F0004308F2004208F1004B
:100C6800A0304001EA004101420840016A02410106
:100C7800370788310C208031410142083702C20011
:100C88004308383BC3004108031D4B2E4D2E01304D
:100C98004E2E00304001EA00EB016A084101B7001E
:100CA80040016B084101B800410803195C2E5D2E14
:100CB800682EFF30C207FF30C33D4208A03E8600C1
:100CC80001308700410881003708B1023808B23B7B
:100CD80040016408A7006308A60041014208A03E3D
:100CE8004001A800410132084001AA004101310831
:100CF8004001A9009331F723803108009231DE22A8
:100D0800863140011914991433304101ED00BB308C
:100D1800EC00DF30890B8E2EEC0B8E2EED0B8E2E19
:100D2800003259304101E2009830E3009231EE225E
:100D3800863103104001191C03140318A42EA72E92
:100D480040011914A92E4001191006304101ED0087
:100D58001330EC00AD30890BAF2EEC0BAF2EED0B42
:100D6800AF2E003203104001191C03140318BD2EC6
:100D7800C02E40011914C22E40011910063041013D
:100D8800ED001330EC00AD30890BC82EEC0BC82EEB
:100D9800ED0BC82E003203104001991C03140318F0
:100DA800D62ED92E40019914DB2E40019910063019
:100DB8004101ED001330EC00AD30890BE12EEC0B56
:100DC800E12EED0BE12E003203104001991C0314B3
:100DD8000318EF2EF22E40019914F42E40019910B9
:100DE80006304101ED001330EC00AD30890BFA2ECE
:100DF800EC0BFA2EED0BFA2E003205309231CE2292
:100E0800863170084101EC007108ED00EE01EF0138
:100E18006F08F6006E08F5006D08F4006C08F30022
:100E2800003088313320863176084201C0007508C9
:100E3800BF007408BE007308BD0044304001B8000C
:100E48008030B7000030B6000030B5004030A30055
:100E58005330A2003330A1003330A00042014008D3
:100E68004001A70042013F084001A60042013E0898
:100E78004001A50042013D084001A4008D31C5256F
:100E8800863140012308BC002208BB002108BA00B3
:100E98002008B9008A310F22863140013808420102
:100EA800BC00400137084201BB004001360842013E
:100EB800BA00400135084201B9003C304001B80091
:100EC8009F30B700BE30B6007730B500BE30F300B3
:100ED800CC30F200CC30F100CD30F00042013C08BB
:100EE800F7003B08F6003A08F5003908F4008B31A2
:100EF800B923863173084001BC007208BB00710831
:100F0800BA007008B9008A310F22863140013808CA
:100F18004201B800400137084201B70040013608D5
:100F28004201B600400135084201B50030304101A8
:100F3800E2009830E300420140084101E700420125
:100F48003F084101E60042013E084101E500420137
:100F58003D084101E400420138084101EB0042012B
:100F680037084101EA00420136084101E90042011F
:100F780035084101E8009231EE2286310B304101FB
:100F8800ED002630EC005D30890BC82FEC0BC82F24
:100F9800ED0BC82F00329D2E803114284001A5008A
:100FA800A301A401EA2F2208A000A1012008F20051
:100FB8002108F3007C08F5007B08F4009431DE2456
:100FC800873101304001A3070030A43D23082507DD
:100FD800A00020088600013087000108A20022082E
:100FE800031DF72FF82FD72F080064008001013167
:100FF800890BFA2F003408007008710403190528BA
:1010080006280B2871084201AD007008AC000800E2
:10101800F5007008F7007508F6002628770886009E
:10102800013087000108F4000130F3007308F70766
:101038007608860001308700740881000130F300CB
:101048007308F6070130F1020030F23B710A031D04
:101058003128720A031D312832281228080040015D
:10106800A0002008031939283A284E28F61F3D28E1
:101078003E284E287309A2007409A3007509A4002C
:101088007609A500A20A0319A30A0319A40A0319D9
:10109800A50A56287608A5007508A4007408A300B8
:1010A8007308A2007608750474047304031D5D2890
:1010B8005E2867280030F6000030F5000030F400A4
:1010C8000030F300DD289630A10075280130F700C4
:1010D8007708A1070130A536A40CA30CA20C890B34
:1010E8006F28FE302505031D7A287B286A288F285B
:1010F8000130F7007708A1070130A2070030A33DAF
:101108000030A43D0030A53D0130A536A40CA30C49
:10111800A20C890B8928FF302505031D94289528E2
:101128007C289F280130A1020130A235A30DA40D0F
:10113800A50D890B9928A41BA228A328A928023049
:1011480021020318A828A92896282118AC28AD2818
:10115800B528FF30A205FF30A3057F30A405FF3076
:10116800A5050310A10C2108F700F801F901FA01FF
:101178001830F735F80DF90DFA0D890BBD287708E9
:10118800A2047808A3047908A4047A08A50420080E
:101198000319CF28D028D528F61FD328D428D52836
:1011A800A5172508F6002408F5002308F4002208EE
:1011B800F300080041014E0886008701403FD00037
:1011C800413FD10050088400510885001200253A9B
:1011D800031DEF28F028F4294E0886008701013006
:1011E800810741310318810A4201A801A9010310AE
:1011F800003003180130B400FF30AA00FF30AB0004
:1012080041014F08F6004E0895313B258831770893
:101218004201A9007608A800A91F132914291A2930
:101228003414A809A909A80A0319A90A41014E08F2
:1012380086008701403FD000413FD100500884001C
:101248005108850012002E3A031D2B292C293F290D
:101258004E08860087010130810741310318810A51
:101268004F08F6004E0895313B2588317708420132
:10127800AB007608AA0041014E0886008701403F6E
:10128800D900413FDA00590884005A08850000084F
:10129800D80058290130D9070030DA3D6B296C3065
:1012A800D8006B29D8016B295808D000D101510802
:1012B800003A03196029562950084C3A03194E2957
:1012C8002A3A031953290A3A03194E295629590863
:1012D80084005A0885001200663A031D742975298E
:1012E800EA2998294F0886008701010884008501AA
:1012F80004308107003FD400013FD500023FD600EB
:10130800033FD700A8294F088600870101088400F9
:10131800850104308107003FD400013FD500023F1A
:10132800D600033FD700A8295808D000D10151089A
:10133800003A0319A029A82950084C3A031987290B
:10134800203A03197629A8295908013ED00000300F
:101358005A3DD1004E08860087015008C03F510809
:10136800C13FD9294D084001E40041014C08400122
:10137800E300410157084001E800410156084001D7
:10138800E700410155084001E600410154084001C9
:10139800E5004101590884005A0885000008400109
:1013A800E90080312A2088310E2A590884005A0819
:1013B80085000008D000D1015108003A0319E52939
:1013C800EA295008663A0319B629EA2941014E0864
:1013D800860087010130810741310318810A0E2AEE
:1013E8004E0886008701403FD000413FD100500899
:1013F8008400510885000008D200D3015208F20089
:101408005308F3004D08F5004C08F4009431DE242D
:101418008831EA29080040013C088039C6003C357B
:10142800CD00BB1F182A192A1A2A4D144D08031972
:101438001E2A1F2A2F2A4D0A031D232A242A2C2A52
:101448000030BC000030BB000030BA000030B900EA
:10145800BB17BC01372A0030BC000030BB0000308D
:10146800BA000030B90038088039BD003D08C6060A
:101478003835CE00B71F412A422A432A4E144E0857
:101488000319472A482A582A4E0A031D4C2A4D2A6E
:10149800552A0030B8000030B7000030B6000030E0
:1014A800B500B717B801602A0030B8000030B7009F
:1014B8000030B6000030B50038083704360435046B
:1014C800031D672A682A812A0030BC000030BB004F
:1014D8000030BA000030B9008030BB047F30BC0453
:1014E8004608BD003D08BC043C08B8003B08B700EE
:1014F8003A08B6003908B500B82B4D08031D852AEF
:10150800862A8F2A0030B8000030B7000030B600B5
:101518000030B500B82B4D08BD00BE013E08C00024
:101528004E083D02BF00031CC0033F087F3EC700B2
:101538000030403DC8003C08C5003B08C4003A08DC
:10154800C3003908C2000030BC000030BB000030C6
:10155800BA000030B9000030CC000030CB000030B9
:10156800CA000030C900CE01F72A4E080319BD2A67
:10157800BE2AD82A0130C235C30DC40DC50D890B4A
:10158800BF2A0130B935BA0DBB0DBC0D890BC62A6F
:10159800CC1FCF2AD02AD12A39140130C935CA0D17
:1015A800CB0DCC0D890BD22A38084502031DE62A3B
:1015B80037084402031DE62A36084302031DE62ABB
:1015C80035084202031CE92AEA2AF32A4C1735088F
:1015D800C2023608C33B3708C43B3808C53B013054
:1015E800BD003D08CE071A304E02031CFC2AFD2A16
:1015F800B92A45084404430442040319042B052B63
:101608001E2B49141E2B0130B935BA0DBB0DBC0D6C
:10161800890B082BCC1F112B122B132B39140130DB
:10162800C935CA0DCB0DCC0D890B142BFF30C7075C
:10163800FF30C83DBB1F212B222B072BCE01CC1F0F
:10164800262B272B432BFF304905BD00FF304A05C9
:10165800BE00FF304B05BF007F304C05C00040087E
:101668003F043E043D0403193A2B3B2B3E2BCE018D
:10167800CE0A432B391C412B422B432B3B2B4E08C4
:101688000319472B482B702B0130B9070030BA3D9E
:101698000030BB3D0030BC3D3C1C532B542B702B01
:1016A8003908BD003A08BE003B08BF003C08C0002E
:1016B8000130C100C037BF0CBE0CBD0CC10B5E2B86
:1016C8004008BC003F08BB003E08BA003D08B9000E
:1016D8000130C7070030C83D4808803ABD00803057
:1016E8003D02031D792BFF304702031C7C2B7D2B09
:1016F8008A2BFF304001C7000030C8000030BC0012
:101708000030BB000030BA000030B9004001480882
:10171800803ABD0080303D02031D942B0130470202
:101728000318972B982BA42B4001C701C801003040
:10173800BC000030BB000030BA000030B900C60160
:1017480040014708CD004D1CAA2BAB2BAD2BBB1776
:10175800B12B7F30BD003D08BB054D36BC004608A7
:10176800BD003D08BC04782A080073088039F800D9
:101778007335FA00F21FC12BC22BC32B7A147A08D7
:101788000319C72BC82BD82B7A0A031DCC2BCD2BBA
:10179800D52B0030F3000030F2000030F1000030AB
:1017A800F000F217F301E02B0030F3000030F200F4
:1017B8000030F1000030F00077088039F90079082E
:1017C80078060319E82BE92BEA2B78177735F90007
:1017D800F61FEF2BF02BF12B791479080319F52B51
:1017E800F62B062C790A031DFA2BFB2B032C003051
:1017F800F7000030F6000030F5000030F400F6176E
:10180800F7010E2C0030F7000030F6000030F5002C
:101818000030F4007A0879020318132C142C3B2C9E
:10182800781F172C182C1D2C80304001A000200890
:10183800F8067A08FB007908FA007B08F9007008B6
:10184800FB007408F0007B08F4007108FB007508C1
:10185800F1007B08F5007208FB007608F2007B08AF
:10186800F6007308FB007708F3007B08F700FB011C
:1018780079084001A000A1012108A3007A082002EC
:10188800A200031CA3032308803AA400803024028A
:10189800031D502C1A302202031C532C542C862C66
:1018A8007308720471047004031D5B2C5D2C0130F5
:1018B8005E2C0030FB000030F3000030F2000030F6
:1018C800F1000030F0007908FA008C2C7B1C6D2C9C
:1018D8006E2C722C7B360138FB00742C0310FB0C29
:1018E800701C772C782C792CFB1701304001A00054
:1018F800F337F20CF10CF00CA00B7C2C0130A0009B
:101908002008FA0779087A02031C8B2C8C2C6A2C85
:10191800781B8F2C902CC72C7A08031D942C952C9F
:101928009E2C0030F3000030F2000030F10000304F
:10193800F000C42D7408F0077508F13D7608F23DF3
:101948007708F33D731CA92CAA2C542D7B1CAD2CB5
:10195800AE2CB22C7B360138FB00B42C0310FB0CE8
:10196800701CB72CB82CB92CFB1701304001A00013
:10197800F337F20CF10CF00CA00BBC2C0130A000DA
:101988002008FA07542D7308803A4001A000770810
:10199800803A2002031DDA2C76087202031DDA2C25
:1019A80075087102031DDA2C740870020318DD2C07
:1019B800DE2C162DFF30A000FF30A100FF30A20062
:1019C800FF30A30070087402A4007108753BA500DD
:1019D8007208763BA6007308773BA7002408A00787
:1019E8002508A13D2608A23D2708A33D2308F300AA
:1019F8002208F2002108F1002008F0008030A00041
:101A08002008F806FB09FB0A7B08031D0C2D0D2D89
:101A18001E2D0130F0070030F13D0030F23D00305E
:101A2800F33D1E2D7408F0027508F13B7608F23B71
:101A38007708F33B7308720471047004031D252DA5
:101A4800262D502D7B08031D2A2D2B2D502D0030BF
:101A5800F3000030F2000030F1000030F000C42D37
:101A68000130F035F10DF20DF30D890B352DFB1F0B
:101A78003E2D3F2D402D70147B1C432D442D472DAA
:101A88000314FB0D492D0310FB0D7A0803194D2D86
:101A98004E2D502D0130FA02F21F532D542D342DA6
:101AA800F901FB1F582D592D672D7B087F39031924
:101AB8005E2D5F2D622DF901F90A672D701C652DC9
:101AC800662D672D5F2D790803196B2D6C2D9A2DC6
:101AD8000130F0070030F13D0030F23D0030F33DB9
:101AE800731C772D782D9A2D70084001A00071087D
:101AF800A1007208A2007308A3000130A400A33754
:101B0800A20CA10CA00CA40B832D2308F30022081F
:101B1800F2002108F1002008F0007A0A0319952D37
:101B2800962D9A2D0130A0002008FA077A0A031989
:101B38009E2D9F2DA42D7A08031DA32DA42DB22D13
:101B48000030F3000030F2000030F1000030F00007
:101B58007A08031DB02DB12DB22DF8017A1CB52DD0
:101B6800B62DB82DF217BD2D7F304001A0002008FA
:101B7800F2057A36F300F81FC22DC32DC42DF317D2
:101B88000800400123088039A8002335AE00A21FB1
:101B9800CE2DCF2DD02D2E142E080319D42DD52DB2
:101BA800E42D2E0A031DD92DDA2DE22D0030A300D5
:101BB8000030A2000030A1000030A000A217EC2DD8
:101BC8000030A3000030A2000030A1000030A000C7
:101BD80027088039F9007908A8062735AD00A61F1F
:101BE800F62DF72DF82D2D142D080319FC2DFD2D9C
:101BF8000C2E2D0A031D012E022E0A2E0030A700DE
:101C08000030A6000030A5000030A400A617142E4E
:101C18000030A7000030A6000030A5000030A40066
:101C28002D080319182E192E1E2E2E08031D1D2EE1
:101C38001E2E272E0030A3000030A2000030A10085
:101C48000030A000FF2F2008F00026089331D4238D
:101C58008D3171084001B4007008B3003308F900F1
:101C6800FA01FB01FC017C08AC007B08AB007A0898
:101C7800AA007908A9003408F900FA01FB01FC015F
:101C88007C08B2007B08B1007A08B0007908AF0080
:101C98002108F00025089331D4238D3171084001C3
:101CA800B4007008B3003308F900FA01FB01FC0125
:101CB8007908A9077A08AA3D7B08AB3D7C08AC3DAA
:101CC8003408F900FA01FB01FC017908AF077A082A
:101CD800B03D7B08B13D7C08B23D2208F0002408E5
:101CE8009331D4238D3171084001B4007008B300DA
:101CF8003308F900FA01FB01FC017908A9077A0801
:101D0800AA3D7B08AB3D7C08AC3D3408F900FA01DC
:101D1800FB01FC017908AF077A08B03D7B08B13DAB
:101D28007C08B23D0830A935AA0DAB0DAC0D890B66
:101D3800972E2108F00024089331D4238D3171089F
:101D48004001B4007008B3003308A9073408AA3D5D
:101D58000030AB3DAC3D2008F00025089331D4237A
:101D68008D3171084001B4007008B3003308A90729
:101D78003408AA3D0030AB3DAC3D0830A935AA0D6A
:101D8800AB0DAC0D890BC22E2008F000240893314E
:101D9800D4238D3171084001B4007008B3003308B2
:101DA800A9073408AA3D0030AB3DAC3D2108F0003E
:101DB80026089331D4238D3171084001B40070088E
:101DC800B3003308AF073408B03D0030B13DB23D31
:101DD8002208F00025089331D4238D317108400181
:101DE800B4007008B3003308AF073408B03D0030C2
:101DF800B13DB23D2208F00026089331D4238D313D
:101E080071084001B4007008B3003308F9003408C1
:101E1800FA00FB01FC010830F935FA0DFB0DFC0D49
:101E2800890B102F7908AF077A08B03D7B08B13DC0
:101E38007C08B23D2908F9002A08FA002B08FB00A3
:101E48002C08FC001830FC36FB0CFA0CF90C890B3A
:101E5800272F7908AF077A08B03D7B08B13D7C0889
:101E6800B23D0830A935AA0DAB0DAC0D890B362F44
:101E78002E082D07F900FA01FA0D7908823EB30001
:101E8800FF307A3DB4005F2F0130AF35B00DB10D92
:101E9800B20D890B492FAC1F522F532F542F2F14DB
:101EA8000130A935AA0DAB0DAC0D890B552FFF30AC
:101EB800B307FF30B43DB11F622F632F482FAD0128
:101EC800AC1F672F682F842FFF302905F900FF30DA
:101ED8002A05FA00FF302B05FB007F302C05FC009B
:101EE8007C087B047A04790403197B2F7C2F7F2FCD
:101EF800AD01AD0A842F2F1C822F832F842F7C2FB6
:101F08002D080319882F892FB12F0130AF07003012
:101F1800B03D0030B13D0030B23D321C942F952FBA
:101F2800B12F2F08F9003008FA003108FB003208F9
:101F3800FC000130FD00FC37FB0CFA0CF90CFD0B22
:101F48009F2F7C08B2007B08B1007A08B00079089E
:101F5800AF000130B3070030B43D3408803AF900CF
:101F680080307902031DBA2FFF303302031CBD2FC6
:101F7800BE2FC82F7F304001B2008030B100003042
:101F8800B0000030AF00F32F40013408803AF90068
:101F980080307902031DD22F013033020318D52F68
:101FA800D62FE12F00304001B2000030B1000030E0
:101FB800B0000030AF00A801F32F40013308AE0095
:101FC800FF30AF05FF30B0057F30B1050030B205F6
:101FD8002E1CEF2FF02FF12FB1172E36B200280844
:101FE800F9007908B2043208A3003108A2003008C9
:081FF800A1002F08A000080061
:1024F600700842019A00080071084201B300700892
:10250600B2000800623051018D008F019101063042
:102516009300920108004E010C100B140030F000DD
:102526000030F10092317F22923108007308720464
:10253600710470040319A02AA12AA32A8030F30685
:102546000800700871040319A92AAA2AAF2A71087B
:102556004201AF007008AE000800F0014E010F1EE8
:10256600B52AB62ABD2A42019E1EBA2ABB2ABD2A10
:10257600F001F00A70080800F1009231B0229231A1
:10258600003A0319C72AC82AC02A7108F0009231F6
:102596007B2292310800F200720841019E009317D7
:1025A600131313141318D82AD92AD52A0D08F100A3
:1025B6000C08F000080092318522923194314224B1
:1025C60092319231FF22923193311A239231923114
:1025D6008E2292310800E4304001EF0000304101C4
:1025E600DB00DC006308DE006208DD006F30DF0020
:1025F600933136239231080042018E018F019001FA
:102606009101920193018D0141019E019B019C0163
:1026160094019501960197019A01990198018530D7
:10262600930032309D004E010D108D100800483089
:1026360042019F0090309D0026309E00CF309B00C7
:102646009C010030F0000030F1009231A422933159
:102656000030F0000030F100883100209331420153
:10266600B001B101080041015E08E1005D08E0002B
:10267600472B5C08CD005B08CC00E030CE005F083D
:10268600CF008831DE209331410160088400610863
:1026960085001200031D502B512B3C2BDB01DC0166
:1026A6000800F7007108F5007008F4007708F600D6
:1026B6007608860001308700F60A7508F30074086C
:1026C600F200F40A0319F50A7208840073088500FB
:1026D6000008C03F8908031D712B722B5B2B080075
:1026E600F401F501701C782B792B7D2B7208F40709
:1026F6007308F53D0130F235F30D890B7E2B013061
:10270600F136F00C890B832B70087104031D8C2B9A
:102716008D2B752B7508F1007408F00008008030C9
:102726004001B8063C08F3003B08F2003A08F10005
:102736003908F0003808F7003708F6003608F500C3
:102746003508F4008B31B923933173084001B80082
:102756007208B7007108B6007008B5000800F31BD0
:10276600C32B7308031DC22B7208031DC22B7108ED
:10277600031DC22B013070020318C22BC32BD32BAF
:102786007009F0007109F1007209F2007309F30093
:10279600F00A0319F10A0319F20A0319F30AD32BF3
:1027A6000800F800F401F5017008F200F301720860
:1027B600F6007308F700781CE12BE22BE62B76086F
:1027C600F4077708F53D0130F635F70D890BE72B51
:1027D6000310F80C7808031DF12BF22BDE2B75087D
:1027E600F1007408F00008004201341CFB2BFC2B9E
:1027F600052C40012708FC002608FB002808873125
:10280600D22793314001AA1B092C0A2C0F2C2A0827
:10281600AE002908AD00112CAD01AE01AB01AC0133
:10282600252C2030F2000030F30040012708F50087
:102836002608F4009431DE24933101304001AB07C1
:102846000030AC3D2C08803AFD002E08803A7D020F
:10285600031D2F2C2D082B02031C322C332C142C79
:1028660042013418372C382C412C40012708FC0033
:102876002608FB0028088731D2279331080040013B
:1028860096019701980199019A01FF309100BF3096
:102896009200FF309300FC30940007309500FF3023
:1028A6007E01B8006F30C300FF30CE00FC30D90087
:1028B6000730E400B901C401CF01DA01E501BA012C
:1028C600C501D001DB01E601FF30BB00FF30C600C9
:1028D600FF30D100FF30DC000730E700FF30BC00DE
:1028E600FF30C700FF30D200FF30DD000F30E800B8
:1028F6000C307D01C3000F30CB0010307E019E00EE
:10290600BD01BE01BF01C801C901CA01D301D4017D
:10291600D501E901EA01EB01080000307005F80075
:1029260000307105F90080307205FA007F307305BA
:10293600FB007B087A0479047804031DA32CA42CDD
:10294600AC2C0030F3000030F2000030F100003013
:10295600F00000307405F80000307505F90080308D
:102966007605FA007F307705FB007B087A04790448
:102976007804031DBF2CC02CC82C0030F700003093
:10298600F6000030F5000030F40077087306031DEA
:10299600D62C76087206031DD62C75087106031D03
:1029A600D62C740870060319D92CDA2CDC2C0310EB
:1029B600DD2C03140800740875040319E32CE42CB9
:1029C600EA2C74087504031DE92CEA2CEF2C720816
:1029D6009231BF2294313A2D74088600750887001B
:1029E6004931160001040319F92CFA2C1A2D740822
:1029F6008600750887004931403FF600413FF700E1
:102A060074088600750887004231403FF800413F50
:102A1600F9007908803AFA007708803A7A02031DAD
:102A2600162D760878020318192D1A2D3A2D7408DA
:102A36008600750887004231740884007508850091
:102A4600403F0007F6000131413F003DF7007608A0
:102A5600860077088700720881007408860075086A
:102A6600870042310130810741310318810A08008D
:102A76004001A300A101A201230886008701403F6F
:102A8600F800413FF90078088400790885001200B3
:102A96002A3A031D4F2D502D822D230886008701CB
:102AA6000130810741310318810A760886008701C3
:102AB60001088400850102308107003FA100013F23
:102AC600A200962D2008F800F9012208F10021083D
:102AD600F0000A30F2000030F30093317323953191
:102AE600780870074001A1007908713DA20023080B
:102AF600860087010130810741310318810A2308C6
:102B060086008701403FF800413FF90078088400BD
:102B1600790885000008D03EA0000A302002031C78
:102B2600952D962D652D2208F7002108F600080040
:102B36000310720D730DF9007908031DA32DA42D42
:102B4600AD2D0030F3000030F2000030F10000300F
:102B5600F0000A2E7008F4007108F5007208F600FD
:102B66007308F7001F30F736F60CF50CF40C890BDA
:102B7600B62D7408F800F217FF30F005FF30F105A6
:102B8600FF30F2050030F3059630F902F91FCC2D1F
:102B9600CD2DE52D7908803A973E0318D32DD42DF7
:102BA600D52DA42D0130F336F20CF10CF00C890B67
:102BB600D62D0130F4007408F907031DE32DE42D2A
:102BC600D52DFA2D20307902031CEA2DEB2DF52D9B
:102BD600A42D0130F035F10DF20DF30D890BED2D1D
:102BE6000130F9027908031DF92DFA2DEC2D78082C
:102BF6000319FE2DFF2D0A2EF009F109F209F3093A
:102C0600F00A0319F10A0319F20A0319F30A080074
:102C1600420127084001A500420126084001A40000
:102C2600420125084001A300420124084001A200F8
:102C36007308A5007208A4007108A3007008A2001A
:102C46002208F4002308F5002408F6002508F700FA
:102C56001730F736F60CF50CF40C890B2C2EFF30DA
:102C66007405A00000307505A10020082104031D8D
:102C76003D2E3E2E5F2E2208F4002308F500240880
:102C8600F6002508F7000130F435F50DF60DF70DC1
:102C9600890B472E7708760475047404031D542E99
:102CA600552E5A2E0230F0000030F100892E0330E6
:102CB600F0000030F100892E200A2104031D642E45
:102CC600652E852E2208F4002308F5002408F60058
:102CD6002508F7000930F435F50DF60DF70D890BCB
:102CE6006E2E770876047504740403197B2E7D2EE8
:102CF60001307E2E0030F800F9017808F0007908DE
:102D0600F100892E0430F0000030F1000800003098
:102D160040013505BD0000303605BE008030370560
:102D2600BF007F303805C00040083F043E043D0424
:102D3600031D9E2E9F2EA72E0030B8000030B70030
:102D46000030B6000030B50000303905BD00003057
:102D56003A05BE0080303B05BF007F303C05C00011
:102D660040083F043E043D04031DBA2EBB2EC32E6D
:102D76000030BC000030BB000030BA000030B900A3
:102D8600B81FC62EC72EDF2E0030BD000030BE0095
:102D96000030BF008030C0003508BD023608BE3B9B
:102DA6003708BF3B3808C03B4008B8003F08B700AB
:102DB6003E08B6003D08B500BC1FE22EE32EFB2EF2
:102DC6000030BD000030BE000030BF008030C000C3
:102DD6003908BD023A08BE3B3B08BF3B3C08C03B36
:102DE6004008BC003F08BB003E08BA003D08B900D9
:102DF6008030B8068030BC063C083802031D0D2F13
:102E06003B083702031D0D2F3A083602031D0D2F0E
:102E1600390835020318102F112F132F0310142F02
:102E260003140800420123084001E200420122087F
:102E36004001E100420121084001E0004201200872
:102E46004001DF005208E2005108E1005008E000AE
:102E56004F08DF005F08D3006008D4006108D50082
:102E66006208D6001730D636D50CD40CD30C890B95
:102E7600362FFF305305D70000305405D8005708C9
:102E8600813EDD00FF30583DDE005E08803AD3000B
:102E960080305302031D512F17305D02031C542F3F
:102EA600552F562FFF2F4001DE1B5A2F5B2FB82FB1
:102EB600FF30D300FF30D4007F30D5000030D6007D
:102EC6005D0A692FD637D50CD40CD30C890B652F28
:102ED6005608DC005508DB005408DA005308D90010
:102EE6005F085905D30060085A05D40061085B05E0
:102EF600D50062085C05D6005608550454045304F0
:102F0600031D862F872F882F552F5F08D300600853
:102F1600D4006108D5006208D6001F30D636D50C1D
:102F2600D40CD30C890B912F560855045404530422
:102F360003199E2F9F2FA72F5908DF075A08E03D38
:102F46005B08E13D5C08E23D5909D3005A09D4000B
:102F56005B09D5005C09D6005308DF055408E00577
:102F66005508E1055608E205F72F5F08D30060080B
:102F7600D4006108D5006208D6001F30D636D50CBD
:102F8600D40CD30C890BC12F560855045404530492
:102F9600031DCE2FCF2FD82F0030E2000030E100E6
:102FA6000030E0000030DF00F72F5F08D300600834
:102FB600D4006108D5006208D6000130D335D40D9F
:102FC600D50DD60D890BE12F56085504540453042C
:102FD6000319EE2FEF2FF72FBF30E2008030E1000C
:102FE6000030E0000030DF006208D2006108D10046
:102FF6006008D0005F08CF0008001A34133400348C
:103006000034003400347B34123400340034B034DD
:1030160012340034003400340034003400340034F8
:1030260000340034003400340034003400340034FA
:1030360000340034003400340034003400340034EA
:1030460000340034003400340034A4341234003424
:1030560008340034003400340034413444344334FA
:1030660043342034723465346134643473343A340E
:103076002034253432342E3432346634203443340A
:1030860065346C347334693475347334203456348F
:1030960061346C34753465343A3420342534323432
:1030A6002E343234663420340D34003453347934BB
:1030B60073342034533474346134723474340A34BF
:1030C600003469346E34663400346E3461346E34E0
:0230D6000034C4
:020000040001F9
:0A000E00EC3FFF3F9F3FFF3FFF3F25
:00000001FF
