:1000000080312428053008007E1480310B1F092818
:100010000A2822284E01991C0E280F2819288F1C07
:100020001228132819287D088A007C080A008031CC
:100030002228191C1C281D2822280F1C20282128B2
:10004000222813287E10090080312628FC01FD019A
:10005000203084000030850023308F31912780319B
:10006000A03084000030850020308F31912780310E
:100070007E10400182318D2A003400340034003477
:100080000034003400345F3400340034003407346A
:1000900000340734003414347F3414347F3414347F
:1000A00024342A347F342A34123423341334083469
:1000B0006434623436344934553422345034003494
:1000C000053403340034003400341C342234413409
:1000D00000340034413422341C34003414340834E5
:1000E0003E3408341434083408343E3408340834B8
:1000F00000345034303400340034083408340834C8
:10010000083408340034603460340034003420345F
:1001100010340834043402343E3451344934453404
:100120003E34003442347F3440340034423461344D
:100130005134493446342134413445344B3431341C
:100140001834143412347F34103427344534453491
:10015000453439343C344A34493449343034013438
:10016000713409340534033436344934493449345C
:10017000363406344934493429341E340034363494
:10018000363400340034003456343634003400340D
:100190000834143422344134003414341434143404
:1001A0001434143400344134223414340834023406
:1001B0000134513409340634323449347934413409
:1001C0003E347E341134113411347E347F3449345A
:1001D0004934493436343E34413441344134223494
:1001E0007F344134413422341C347F34493449341F
:1001F000493441347F3409340934093401343E34FC
:100200004134493449347A347F340834083408346A
:100210007F34003441347F3441340034203440345E
:1002200041343F3401347F340834143422344134AF
:100230007F3440344034403440347F3402340C3412
:1002400002347F347F340434083410347F343E3435
:100250004134413441343E347F3409340934093463
:1002600006343E344134513421345E347F34093411
:100270001934293446344634493449344934313404
:10028000013401347F34013401343F34403440348C
:1002900040343F341F342034403420341F343F3442
:1002A0004034383440343F34633414340834143424
:1002B00063340734083470340834073461345134FB
:1002C00049344534433400347F34413441340034BC
:1002D00002340434083410342034003441344134BE
:1002E0007F340034043402340134023404344034A2
:1002F0004034403440344034003401340234043457
:100300000034203454345434543478347F344834F2
:100310004434443438343834443444344434203459
:1003200038344434443448347F34383454345434C6
:100330005434183408347E340934013402340C3413
:100340005234523452343E347F340834043404344A
:100350007834003444347D34403400342034403424
:1003600044343D3400347F34103428344434003471
:10037000003441347F34403400347C340434183445
:10038000043478347C340834043404347834383415
:1003900044344434443438347C3414341434143401
:1003A000083408341434143418347C347C3408345D
:1003B0000434043408344834543454345434203429
:1003C00004343F344434403420343C3440344034EA
:1003D00020347C341C342034403420341C343C34ED
:1003E0004034303440343C344434283410342834DD
:1003F00044340C345034503450343C344434643439
:1004000054344C34443400340834363441340034E9
:10041000003400347F340034003400344134363446
:100420000834003410340834083410340834783474
:100430004634413446347834AE308731AC2782318B
:10044000D5308731AC27823180308731AC2782317B
:10045000A8308731AC2782313F308731AC278231D9
:10046000D3308731AC27823100308731AC278231DD
:1004700040308731AC2782318D308731AC278231D3
:1004800014308731AC27823120308731AC2782315C
:1004900000308731AC278231A1308731AC278231DF
:1004A000C8308731AC278231DA308731AC278231CE
:1004B00002308731AC27823181308731AC278231DD
:1004C0008F308731AC278231D9308731AC278231E8
:1004D000F1308731AC278231DB308731AC27823174
:1004E00040308731AC278231A4308731AC2782314C
:1004F000A6308731AC2782312E308731AC2782314C
:10050000AF308731AC27823113304001DE008730B5
:10051000DF0087319C278231080087318C278231A8
:100520008B170B1733304001E200BB30E100DF30A6
:10053000890B982AE10B982AE20B982A00320030A6
:100540004001DE009030DF0087319C27823182310C
:100550001C228231863192268231CB304001DE006E
:100560008730DF0087319C278231863174268231C3
:1005700010304001E2003930E1000D30890BBE2A15
:10058000E10BBE2AE20BBE2A0032BC304001DE0085
:100590008730DF0087319C27823186319226823175
:1005A00010304001E2003930E1000D30890BD62ACD
:1005B000E10BD62AE20BD62A0032003087312527FC
:1005C0008231F5304001DB008730DC008631CA26FD
:1005D000823102308731252782310B304001DB0028
:1005E0009030DC008631CA268231DD2A8031242811
:1005F0004001470848040319FE2AFF2A052B470833
:100600004804031D042B052B0A2B45088F319E2718
:100610008231562B4708860048088700493116006A
:1006200001040319142B152B352B470886004808A5
:1006300087004931403FC900413FCA004708860052
:10064000480887004231403FCB00413FCC004C0876
:10065000803ACD004A08803A4D02031D312B4908EB
:100660004B020318342B352B562B400147088600CC
:100670004808870042314708840048088500403F09
:100680000007C9000131413F003DCA00490886000A
:100690004A08870045088100470886004808870007
:1006A00042310130810741310318810A08008F313E
:1006B00073278331003A03195E2B5F2B8D2B6C2B34
:1006C0008F3146278331A92B8F314B278331A92BBB
:1006D0008F3155278331A92B40012F08F7000630B1
:1006E000203E86008701413F8A00403F0A00833157
:1006F000F800F9017908003A03197F2B682B780874
:10070000013A0319682B033A0319602B013A0319C4
:10071000642B073A0319682B682B40013C101730F3
:10072000203E86008701403F84008501810A000841
:100730008F313C27833101304001B8020030B93B92
:1007400038083904031DA52BA62BA82B0630A92B8E
:10075000033008004001500886008701403FD20066
:10076000413FD30052088400530885001200253A07
:10077000031DBB2BBC2BD92B5008860087010130F1
:10078000810741310318810ABD01BE010310003009
:1007900003180130C100FF30BF00FF30C00040012E
:1007A0005008860087010130810741310318810A12
:1007B000F32B500886008701403FD200413FD30011
:1007C00052088400530885000008D400D50154085D
:1007D000C5005508C6004F08C8004E08C700823142
:1007E000F8228331CF2B080040019A01990196012C
:1007F0009701980107309500FF309100BF309200BB
:10080000FF309300FF309400FF307E01D900E730C5
:10081000CE007F30C3000730E400FF30B800DA01BB
:10082000E501C401B901CF01E601BA01C501D0015A
:10083000DB01FF30BB00FF30C600FF30D100FF30CE
:10084000DC000730E700FF30BC00FF30C700FF309E
:10085000D200FF30DD000F30E8000F307D01CB000B
:100860001330C50010307E019E001430A3001530F7
:10087000A40014307D01C60008004001370886003E
:1008800087018F311827843181000130F800780802
:100890004001B7070130B8020030B93B38083904CD
:1008A0000319532C542C592C8F31342784310530A3
:1008B0007F2CBC15632C8F31642784317F2C8F31C2
:1008C0005F2784317F2C2C08F70021088A0020083C
:1008D0000A008431F800F9017908003A0319712CF3
:1008E0005F2C7808013A03195F2C033A03195B2C3B
:1008F000013A03195B2C073A03195F2C5F2C08009F
:100900004001C500C601C60A3C19872C882CBF2CA3
:100910004508B600BC103C153C100E30BA00F4304F
:10092000B4000130B500BC150D30A0000F30A1009F
:10093000AC010D30A2000F30A300AD010D30A400BA
:100940000F30A500AE010D30A6000F30A700AF019B
:100950000230A8000030A900B0013830C3000F30C9
:10096000C4008F31792784318F31212784318F3131
:10097000F32784318F312D2784314001C601460889
:1009800008004001D800D901DA0140015808D2001E
:10099000D3015208C3005308C4000530C50000301D
:1009A000C6008631362684319C304001D4007F3029
:1009B000D50043085407D6004408553DD7005608D3
:1009C0005907840057085A3D8500000887313727AA
:1009D000843101304001D9070030DA3D5A08803AAD
:1009E000D20080305202031DF72C05305902031C3F
:1009F000FA2CFB2CC52C00308731372784310800B6
:100A00004001BC15102D8F31502785312C2D8F3191
:100A10001B27853103302C2D8F31552785312C2D07
:100A20002C08F70021088A0020080A008531F80008
:100A3000F9017908003A03191E2D0C2D7808013AA6
:100A400003190C2D033A0319032D013A0319032D41
:100A5000073A0319072D0C2D08004001CE00400174
:100A60004E08843180248531003A0319382D392D00
:100A70002F2D40014D08C4004C08C3004B0887319E
:100A8000D927853100304001C700C8000030C900B7
:100A9000CA008F31DB2785318F316E278531863152
:100AA000E3268531013A0319562D572D4F2D0800A5
:100AB0008F311E27853140013C1C5F2D602D6B2D31
:100AC0008F3173278531003A0319672D682D6B2DFF
:100AD0000F304001BA0040013A08FA00FB01FA3534
:100AE000FB0D16307A07840006307B3D8038850088
:100AF000013F8A00003F0A0085314001BA0008002A
:100B000040013C100230BB008D2D8F3150278531C4
:100B1000A72D8F3155278531A72D2E08F7000430DA
:100B2000203E86008701413F8A00403F0A00853110
:100B3000F800F9017908003A03199F2D892D7808EA
:100B4000023A0319852D013A0319852D892D0800D4
:100B5000083042019F0090309D0024309E00CF302D
:100B60009B009C0100304001C3000030C4008F3165
:100B70008527853100304001C3000030C4008F312B
:100B80008B27853100304001C3000030C4008F3115
:100B90007F2785314001C20108004001C60043089B
:100BA00044040319D42DD52DE42D4635203E86006E
:100BB00087014308C03F4408C13F46082C3E8600D9
:100BC000870145088100F12D4635203E86008701CA
:100BD0000D30C03F0F30C13F46082C3E86008701D4
:100BE00081010800F300700871040319F82DF92D34
:100BF000082E7335203E860087017008C03F7108BB
:100C0000C13F73082C3E8600870172088100152EB3
:100C10007335203E860087010D30C03F0F30C13F45
:100C200073082C3E860087018101080041340F348F
:100C3000B5340F34A5340F34573403343D34043401
:100C400097340F340034053446340F344B340F34AA
:100C500050340F3455340F345A340F345F340F345A
:100C600064340F3469340F34803405344001C701D3
:100C7000C801431C3C2E3D2E412E4508C70746089F
:100C8000C83D0130C535C60D890B422E0130C43632
:100C9000C30C890B472E43084404031D502E512ECC
:100CA000392E4808C4004708C3000800400159080D
:100CB000DD005808DC00672E5708CF005608CE002C
:100CC0005C30D0005A08D1008331AA23863140011C
:100CD0005C0884005D0885001200031D702E712ED3
:100CE0005C2ED601D70108000030873125278631D8
:100CF0004001D501D601FF308731372786310130D9
:100D00004001D5070030D63D5608803AD4008430E3
:100D10005402031D8D2E00305502031C902E912E7F
:100D20007B2E080000308731252786314001D50110
:100D3000D601003087313727863101304001D50791
:100D40000030D63D5608803AD40084305402031D4A
:100D5000AB2E00305502031CAE2EAF2E992E08008C
:100D60004001C300C401C40ABC18B72EB82EC72E58
:100D7000BC14C40143080319BE2EBF2EC22EBA01F3
:100D8000BA0AC42E0230BA008F312A2786314001B8
:100D900044080800D82E5B0884005C088500000821
:100DA0008431C124863101304001DB070030DC3D55
:100DB00040015B0884005C0885001200031DE12EE1
:100DC000E22ECB2E08004001C301C30ABC18E92E55
:100DD000EA2EF92E3C11FF30B6008F3121278631E3
:100DE0008F31272786318F312427863140013B08F8
:100DF000C30043080800770886008701403FF000E1
:100E0000413FF1007708023E8600870101088731E3
:100E1000E72786310030F400F500F6018F31D02746
:100E20008631023008004F344C3445344434203489
:100E300069346E34693474342E34203464346F343D
:100E40006E34653421340A3400344001D200520833
:100E5000B038D30053088731AC2787310030873151
:100E6000AC27873110308731AC278731080040012B
:100E7000CF004030D0004F08D1005030CB000230BE
:100E8000CC000030CD003C3085312D258731080065
:100E90000130F0000030F10077088731E727873113
:100EA0000030F400F500F6018F31D027873104308F
:100EB00008000230F0000030F10077088731E727A2
:100EC00087310030F400F500F6018F31D0278731EB
:100ED000023008000130F0000030F100770887315F
:100EE000E72787310030F400F500F6018F31D02775
:100EF0008731023008000230F0000030F10077083E
:100F00008731E72787310030F400F500F6018F3193
:100F1000D0278731043008008F31AD2787318F31DA
:100F2000BE2787318331F42387318F31C72787313B
:100F30008531A8258731080060304001E00000308D
:100F4000D600D7005F08D9005E08D8006030DA000C
:100F500086315626873108004001CF00D0014F0866
:100F6000D1005030CB000230CC000030CD003C30FE
:100F700085312D25873108004F344C3445344434B5
:100F8000203463346C3465346134723469346E34C3
:100F900067340A3400344F344C34453444342034FC
:100FA000663469346C346C3469346E3467340A34B2
:100FB00000344001C500BC1DDE2FDF2FE62F4508A1
:100FC000B7004408B9004308B800BC110800F2009B
:100FD0004001BC1DEC2FED2FF42F7208B7007108F3
:100FE000B9007008B800BC1108004F344C344534C7
:100FF0004434203457346F3472346B3469346E3473
:04100000673400341D
:101E1A00013008004301911408004301111508001C
:101E2A0043019115080043010C0808004E010F14E4
:101E3A0008004E010F1008004E010F100800430160
:101E4A00901208004E0119100800430111140800ED
:101E5A004E01191408004301911611160800430196
:101E6A00911211160800853158258F310800F000AB
:101E7A00700843018C0008004001BC10BB010E3001
:101E8A0008008F310F278F31013008008F310F275B
:101E9A008F31023008008F310F278F31013008004F
:101EAA008F3112278F31003008008F3134278F315C
:101EBA00053008008F3130278F310A3008008F3102
:101ECA0030278F31093008004001BC10BB010E30A9
:101EDA00080000308631B0268F3108004301110E08
:101EEA00890C890C0139080040014408FD004308A7
:101EFA00FC00080040014408E4004308E30008002D
:101F0A0040014408E8004308E7000800400144088B
:101F1A00E6004308E5000800640080010131890BEE
:101F2A00922F003440013C108F3115278F31043035
:101F3A0008004001C40044088F31E7278F310800A8
:101F4A0040013C1436358F313C278F31033008006D
:101F5A004F0196019701980199019A019B01080086
:101F6A0040013C140314360D8F313C278F31053064
:101F7A00080043018F0108309000910113308D0051
:101F8A0090120800623051018D008F0191010630D4
:101F9A009300920108007508F1007408F0007608B1
:101FAA00F20000308531F2258F31080040014808DF
:101FBA00C4004708C3004908C50002308531CD2551
:101FCA008F3108004001C3004E010F1EED2FEE2F86
:101FDA00E92F4001430842019A0008004301901A80
:101FEA00F72FF82FFF2F8F0108309000910113303F
:101FFA008D00901608005334593453342034533426
:10200A0074346134723474340A3400344D346134B3
:0A201A007934203462346534003458
:020000040001F9
:0A000E00EC3FFF3F9F3FFF3FFF3F25
:00000001FF
