:04000000803114280F
:100008007E1480314E01161E0A280B2812280C1E59
:100018000E280F28122886311D2680317E100900EF
:10002800803116286730840000308500093085311A
:10003800FB258031A03084000030850024308531D4
:10004800FB2580317E10400180312A288531AC257E
:10005800803140011914991433304001D900BB3064
:10006800D800DF30890B3628D80B3628D90B36282C
:100078000032B9304001D3008530D4008531542591
:10008800803103104001191C031403184C284F2811
:100098004001191451284001191006304001D900B7
:1000A8001330D800AD30890B5728D80B5728D90BF7
:1000B8005728003203104001191C0314031865283F
:1000C8006828400119146A284001191006304001B7
:1000D800D9001330D800AD30890B7028D80B7028A0
:1000E800D90B7028003203104001991C031403181F
:1000F8007E288128400199148328400199100630F0
:100108004001D9001330D800AD30890B8928D80BAD
:100118008928D90B8928003203104001991C03143F
:10012800031897289A28400199149C28400199108F
:1001380006304001D9001330D800AD30890BA22811
:10014800D80BA228D90BA22800328531412580314D
:100158008531912580318431C92480314001E30003
:100168008431C92480314001E2008431C9248031BE
:100178004001E5008431C92480314001E400843124
:10018800C92480314001E6009F30D3008530D40077
:100198006308D800D9015808D5005908D600853118
:1001A800542580310C304001D3008630D4006208D9
:1001B800D800D9015808D5005908D60085315425EA
:1001C800803107304001D3008630D4008531542572
:1001D80080315B304001D3008430D4006508D800FA
:1001E800D9015808D5005908D600853154258031E1
:1001F80015304001D3008630D4006408D800D901F6
:100208005808D5005908D600853154258031113059
:100218004001D3008630D4008531542580316430C4
:100228004001D3008530D4006608D800D9015808A9
:10023800D5005908D600853154258031400164081D
:10024800D800D9016508DA00DB0163086207DC0021
:10025800DD01DD0D5A085C07DE005B085D3DDF004F
:1002680058085E07E00059085F3DE100660860062F
:1002780061040319402941294929EB30D30085300D
:10028800D4008531542580315029E830D300853099
:10029800D4008531542580310B304001D9002630F7
:1002A800D8005D30890B5629D80B5629D90B562909
:1002B80000324528803114284001B21B6429662980
:1002C800013067290030BC003C0803196C296D29EE
:1002D8007229B109B209B10A0319B20AE81F7529CE
:1002E80076297B290130B6000030B7007F296808DD
:1002F800B7006708B600410121084001B900410173
:1003080020084001B8003C0803198B298C29A02932
:10031800FF30B807FF30B93D3C08031D94299529E3
:100328009A292B30B4000030B5009E292D30B40036
:100338000030B5003408BC001F30BA000030BB00E4
:100348004101C301DE29FF304001BA07FF30BB3D40
:100358003A08A43E860087010A30F0000030F10018
:100368003208F3003108F20083318C23813171089F
:10037800F8007008F7008531272581317708303E6D
:100388008100FF304001B607FF30B73DFF30B807A6
:10039800FF30B93D0A30F0000030F1003208F300B8
:1003A8003108F2008231D022813171084001B20057
:1003B8007008B10040013B08803AB3008030330236
:1003C800031DE82901303A02031CEB29EC29002A15
:1003D800400131083204031DF229F329A7293708FF
:1003E800803AB30080303302031DFC290130360205
:1003F8000318FF29002AA72940013C080319052AE8
:10040800062A102AFF30BA07FF30BB3D3A08A43E3F
:10041800860087013C0881003008A7002F08A60045
:100428003A08A43EA8003908AA003808A90084316F
:100438006B248131080040013F0886008701403F56
:10044800C100413FC20041088400420885001200F3
:10045800253A031D302A312AB52A3F08860087012C
:100468000130810741310318810A4101A001A1012E
:1004780003100030031801304001EF00FF30E7009F
:10048800FF30E8003F0886008701403FC900413F30
:10049800CA00490884004A0885001200643A031912
:1004A800562A572A612A490884004A0885001200FA
:1004B800693A031D602A612A862A40088600870156
:1004C80001088400850102308107003FC500013F13
:1004D800C6004908013EC10000304A3DC2003F083D
:1004E800860087014108C03F4208C13F3E08B0006E
:1004F8003D08AF004608B2004508B10081316021CF
:100508008231CF2A3F0886008701403FC100413F22
:10051800C20041088400420885001200253A031DE4
:10052800962A972AAB2A3F0886008701013081075F
:1005380041310318810A2530F2000030F3003E08EB
:10054800F5003D08F40083312F238231CF2A400182
:100558003F08860087010130810741310318810A6D
:10056800CF2A3F0886008701403FC100413FC200B3
:1005780041088400420885000008C300C4014308FC
:10058800F2004408F3003E08F5003D08F40083310A
:100598002F238231AB2A0800F601F11FD42AD52A6D
:1005A800DC2AF009F109F00A0319F10AF601F60A42
:1005B800F31FDF2AE02AE92AF209F309F20A0319EC
:1005C800F30A0130F4007408F606F701F801700820
:1005D80071040319F02AF12A202BF501F50AFD2AE6
:1005E8000130F035F10D890BF52A0130F40074085B
:1005F800F507F11F002B012BF42A0130F735F80D10
:10060800890B022B71087302031D0C2B70087202F0
:10061800031C0F2B102B152B7008F2027108F33BEB
:1006280077140130F136F00C890B162B0130F502E6
:10063800031D1F2B202B012B76080319242B252B98
:100648002A2BF709F809F70A0319F80A7808F100BC
:100658007708F0000800740875040319342B352B4B
:100668003B2B74087504031D3A2B3B2B402B720857
:100678008531732583318B2B7408860075088700B4
:1006880049311600010403194A2B4B2B6B2B7408B4
:100698008600750887004931403FF600413FF70062
:1006A80074088600750887004231403FF800413FD2
:1006B800F9007908803AFA007708803A7A02031D2F
:1006C800672B7608780203186A2B6B2B8B2B740820
:1006D8008600750887004231740884007508850013
:1006E800403F0007F6000131413F003DF700760822
:1006F80086007708870072088100740886007508EC
:10070800870042310130810741310318810A08000E
:10071800F601F31F902B912B982BF209F309F20A9B
:100728000319F30AF601F60AF11F9B2B9C2BA12B48
:10073800F009F109F00A0319F10A700871040319A4
:10074800A62BA72BD02BF501F50AB32B0130F035DA
:10075800F10D890BAB2B0130F4007408F507F11F7C
:10076800B62BB72BAA2B71087302031DBD2B70087B
:100778007202031CC02BC12BC52B7008F202710832
:10078800F33B0130F136F00C890BC62B0130F50232
:10079800031DCF2BD02BB72B76080319D42BD52BC1
:1007A800DA2BF209F309F20A0319F30A7308F100C4
:1007B8007208F0000800400196019701980199011C
:1007C8009A01FF309100BF309200FF309300FC3057
:1007D800940007309500FE307E01B8007F30C300DA
:1007E800FF30CE00FC30D9000730E400B901C40165
:1007F800CF01DA01E501BA01C501D001DB01E6014B
:10080800FF30BB00FF30C600FF30D100FF30DC00F6
:100818000730E700FF30BC00FF30C700FF30D200D0
:10082800FF30DD000F30E8000F307D01CB001030C5
:100838007E019E00BD01BE01BF01C801C901CA01F8
:10084800D301D401D501E901EA01EB0108000B3419
:1008580005340034003400340034193406340034CC
:100868000034823405340034003400340034003459
:1008780000340034003400340034003400340034D0
:1008880000340034003400340034003400340034C0
:100898000034003400340034003400340034D134DF
:1008A8000534C5340534003400340034003454347D
:1008B80065346D347034653472346134743475342D
:1008C800723465343A3420342534643400344001B9
:1008D800AA1B6F2C702C752C2A08AE002908AD00B5
:1008E800772CAD01AE01AB01AC018B2C2030F200AE
:1008F8000030F30040012708F5002608F400833192
:100908002F23843101304001AB070030AC3D2C0867
:10091800803AFD002E08803A7D02031D952C2D0893
:100928002B02031C982C992C7A2C40012708FC00D8
:100938002608FB0028088431A324843108004001DC
:10094800A500A301A401BB2C2208A000A101200836
:10095800F2002108F3007C08F5007B08F4008331DD
:100968002F23843101304001A3070030A43D230820
:100978002507A0002008860087010108A200220898
:10098800031DC72CC82CA82C0800F201F101400156
:100998000C1CCF2CD02CCB2C1430890BD12C400123
:1009A8000C1CD72CD82CDB2C0314F20DDD2C723543
:1009B800F2000C18E02CE12CDD2C0130F00070085E
:1009C800F10708307102031CEA2CEB2CCB2C7208BF
:1009D800080040014E08D2004D08D100FE2C4C08FA
:1009E800BE004B08BD005130BF004F08C000823127
:1009F8001F228431400151088400520885001200EA
:100A0800031D072D082DF32CCB01CC01080048301D
:100A180042019F0090309D0026309E00CF309B0001
:100A28009C010030F0000030F1008531D12585317E
:100A38000030F0000030F1008531C52585314101D5
:100A4800A201A30108007808803AF90080307902F1
:100A5800031D302D013077020318332D342D402D1E
:100A68007709F9007809FA00F90A0319FA0A7908E6
:100A7800F7007A08F800402D080040011110161000
:100A88002F30F000C030890B472DF00B472D400167
:100A980016140D30890B4E2D00004001111408006A
:100AA80055304001D7000030CB00CC005408CE00B0
:100AB8005308CD005730CF008431ED24853108002C
:100AC80043346834653463346B34733475346D344B
:100AD8003A342034253464342C3420340034F10082
:100AE800853182258531003A03197B2D7C2D742DA3
:100AF8007108F0008631192685310800F0014E0191
:100B08000F1E872D882D8F2D42019E1E8C2D8D2D19
:100B18008F2DF001F00A7008080040010C18952D7F
:100B2800962D912D0C1C992D9A2D962D0C189D2DD6
:100B38009E2D9A2D0800483475346D346934643418
:100B48006934743479343A342034253464340034C4
:100B58008531F22585318331DF23853185310B25B8
:100B680085318531DD258531080073347934733456
:100B780020347334743461347234743421340A3454
:100B88000034700871040319CA2DCB2DD02D7108BB
:100B98004001EC007008EB000800700871040319AC
:100BA800D62DD72DDC2D71084001EE007008ED0020
:100BB80008004E010C100B140030F0000030F1005A
:100BC80086310126853108004E346F34203445348F
:100BD800723472346F3472340A3400346230510122
:100BE8008D008F0191010630930092010800640086
:100BF80080010131890BFC2D003471084001EA00A5
:100C08007008E9000800253425342C3420340034D9
:100C18002E34253464342034003443342C342034C6
:100C280000342E34253464340034700842019A00AC
:040C380008000800A8
:020000040001F9
:0A000E00EC3FFF3F9F3FFF3FFF3F25
:00000001FF
